{
  "_format": "hh-sol-artifact-1",
  "contractName": "NFTMarketplaceAuction",
  "sourceName": "contracts/BidContract.sol",
  "abi": [
    {
      "inputs": [],
      "stateMutability": "nonpayable",
      "type": "constructor"
    },
    {
      "anonymous": false,
      "inputs": [
        {
          "indexed": true,
          "internalType": "uint256",
          "name": "nftId",
          "type": "uint256"
        },
        {
          "indexed": true,
          "internalType": "address",
          "name": "winner",
          "type": "address"
        },
        {
          "indexed": false,
          "internalType": "uint256",
          "name": "amount",
          "type": "uint256"
        }
      ],
      "name": "AuctionEnded",
      "type": "event"
    },
    {
      "anonymous": false,
      "inputs": [
        {
          "indexed": true,
          "internalType": "uint256",
          "name": "nftId",
          "type": "uint256"
        },
        {
          "indexed": true,
          "internalType": "address",
          "name": "bidder",
          "type": "address"
        },
        {
          "indexed": false,
          "internalType": "uint256",
          "name": "amount",
          "type": "uint256"
        }
      ],
      "name": "BidPlaced",
      "type": "event"
    },
    {
      "anonymous": false,
      "inputs": [
        {
          "indexed": true,
          "internalType": "uint256",
          "name": "nftId",
          "type": "uint256"
        },
        {
          "indexed": false,
          "internalType": "uint256",
          "name": "price",
          "type": "uint256"
        }
      ],
      "name": "NFTListed",
      "type": "event"
    },
    {
      "inputs": [],
      "name": "auctionDuration",
      "outputs": [
        {
          "internalType": "uint256",
          "name": "",
          "type": "uint256"
        }
      ],
      "stateMutability": "view",
      "type": "function"
    },
    {
      "inputs": [
        {
          "internalType": "uint256",
          "name": "",
          "type": "uint256"
        }
      ],
      "name": "auctionEndTimes",
      "outputs": [
        {
          "internalType": "uint256",
          "name": "",
          "type": "uint256"
        }
      ],
      "stateMutability": "view",
      "type": "function"
    },
    {
      "inputs": [
        {
          "internalType": "uint256",
          "name": "nftId",
          "type": "uint256"
        }
      ],
      "name": "endAuction",
      "outputs": [],
      "stateMutability": "nonpayable",
      "type": "function"
    },
    {
      "inputs": [
        {
          "internalType": "uint256",
          "name": "nftId",
          "type": "uint256"
        }
      ],
      "name": "getAuctionEndTime",
      "outputs": [
        {
          "internalType": "uint256",
          "name": "",
          "type": "uint256"
        }
      ],
      "stateMutability": "view",
      "type": "function"
    },
    {
      "inputs": [
        {
          "internalType": "uint256",
          "name": "nftId",
          "type": "uint256"
        }
      ],
      "name": "getBids",
      "outputs": [
        {
          "components": [
            {
              "internalType": "address",
              "name": "bidder",
              "type": "address"
            },
            {
              "internalType": "uint256",
              "name": "amount",
              "type": "uint256"
            }
          ],
          "internalType": "struct NFTMarketplaceAuction.Bid[]",
          "name": "",
          "type": "tuple[]"
        }
      ],
      "stateMutability": "view",
      "type": "function"
    },
    {
      "inputs": [],
      "name": "getContractBalance",
      "outputs": [
        {
          "internalType": "uint256",
          "name": "",
          "type": "uint256"
        }
      ],
      "stateMutability": "view",
      "type": "function"
    },
    {
      "inputs": [
        {
          "internalType": "uint256",
          "name": "",
          "type": "uint256"
        }
      ],
      "name": "isSoldOut",
      "outputs": [
        {
          "internalType": "bool",
          "name": "",
          "type": "bool"
        }
      ],
      "stateMutability": "view",
      "type": "function"
    },
    {
      "inputs": [
        {
          "internalType": "uint256",
          "name": "nftId",
          "type": "uint256"
        },
        {
          "internalType": "uint256",
          "name": "price",
          "type": "uint256"
        }
      ],
      "name": "listNFT",
      "outputs": [],
      "stateMutability": "nonpayable",
      "type": "function"
    },
    {
      "inputs": [
        {
          "internalType": "uint256",
          "name": "",
          "type": "uint256"
        },
        {
          "internalType": "uint256",
          "name": "",
          "type": "uint256"
        }
      ],
      "name": "nftBids",
      "outputs": [
        {
          "internalType": "address",
          "name": "bidder",
          "type": "address"
        },
        {
          "internalType": "uint256",
          "name": "amount",
          "type": "uint256"
        }
      ],
      "stateMutability": "view",
      "type": "function"
    },
    {
      "inputs": [
        {
          "internalType": "uint256",
          "name": "",
          "type": "uint256"
        }
      ],
      "name": "nftOwners",
      "outputs": [
        {
          "internalType": "address",
          "name": "",
          "type": "address"
        }
      ],
      "stateMutability": "view",
      "type": "function"
    },
    {
      "inputs": [
        {
          "internalType": "uint256",
          "name": "",
          "type": "uint256"
        }
      ],
      "name": "nftPrices",
      "outputs": [
        {
          "internalType": "uint256",
          "name": "",
          "type": "uint256"
        }
      ],
      "stateMutability": "view",
      "type": "function"
    },
    {
      "inputs": [],
      "name": "owner",
      "outputs": [
        {
          "internalType": "address",
          "name": "",
          "type": "address"
        }
      ],
      "stateMutability": "view",
      "type": "function"
    },
    {
      "inputs": [
        {
          "internalType": "uint256",
          "name": "nftId",
          "type": "uint256"
        }
      ],
      "name": "placeBid",
      "outputs": [],
      "stateMutability": "payable",
      "type": "function"
    }
  ],
  "bytecode": "0x608060405262015180600155348015601657600080fd5b50336000806101000a81548173ffffffffffffffffffffffffffffffffffffffff021916908373ffffffffffffffffffffffffffffffffffffffff1602179055506114e3806100666000396000f3fe6080604052600436106100c25760003560e01c80639979ef451161007f578063bbd94c2f11610059578063bbd94c2f1461026e578063c0ee86a7146102ab578063d9f10a2b146102e8578063f0ba9cb814610325576100c2565b80639979ef45146101eb578063b9a2de3a14610207578063ba5a957514610230576100c2565b80630cbf54c8146100c7578063131d9a27146100f25780636f9fb98a1461012f5780638da5cb5b1461015a578063930e79f11461018557806394383f14146101c2575b600080fd5b3480156100d357600080fd5b506100dc610362565b6040516100e99190610eca565b60405180910390f35b3480156100fe57600080fd5b5061011960048036038101906101149190610f16565b610368565b6040516101269190611071565b60405180910390f35b34801561013b57600080fd5b5061014461043a565b6040516101519190610eca565b60405180910390f35b34801561016657600080fd5b5061016f610442565b60405161017c91906110a2565b60405180910390f35b34801561019157600080fd5b506101ac60048036038101906101a79190610f16565b610466565b6040516101b99190610eca565b60405180910390f35b3480156101ce57600080fd5b506101e960048036038101906101e491906110bd565b610483565b005b61020560048036038101906102009190610f16565b6105cb565b005b34801561021357600080fd5b5061022e60048036038101906102299190610f16565b6107d7565b005b34801561023c57600080fd5b50610257600480360381019061025291906110bd565b610dcd565b6040516102659291906110fd565b60405180910390f35b34801561027a57600080fd5b5061029560048036038101906102909190610f16565b610e2e565b6040516102a291906110a2565b60405180910390f35b3480156102b757600080fd5b506102d260048036038101906102cd9190610f16565b610e61565b6040516102df9190610eca565b60405180910390f35b3480156102f457600080fd5b5061030f600480360381019061030a9190610f16565b610e79565b60405161031c9190610eca565b60405180910390f35b34801561033157600080fd5b5061034c60048036038101906103479190610f16565b610e91565b6040516103599190611141565b60405180910390f35b60015481565b606060046000838152602001908152602001600020805480602002602001604051908101604052809291908181526020016000905b8282101561042f57838290600052602060002090600202016040518060400160405290816000820160009054906101000a900473ffffffffffffffffffffffffffffffffffffffff1673ffffffffffffffffffffffffffffffffffffffff1673ffffffffffffffffffffffffffffffffffffffff1681526020016001820154815250508152602001906001019061039d565b505050509050919050565b600047905090565b60008054906101000a900473ffffffffffffffffffffffffffffffffffffffff1681565b600060066000838152602001908152602001600020549050919050565b600073ffffffffffffffffffffffffffffffffffffffff166002600084815260200190815260200160002060009054906101000a900473ffffffffffffffffffffffffffffffffffffffff1673ffffffffffffffffffffffffffffffffffffffff1614610525576040517f08c379a000000000000000000000000000000000000000000000000000000000815260040161051c906111b9565b60405180910390fd5b336002600084815260200190815260200160002060006101000a81548173ffffffffffffffffffffffffffffffffffffffff021916908373ffffffffffffffffffffffffffffffffffffffff160217905550806003600084815260200190815260200160002081905550817fa6cd73580a273eec6c1026108f6b63479fbaef5356dde4ff43e4b38dd187485f826040516105bf9190610eca565b60405180910390a25050565b806005600082815260200190815260200160002060009054906101000a900460ff161561062d576040517f08c379a000000000000000000000000000000000000000000000000000000000815260040161062490611225565b60405180910390fd5b60006003600084815260200190815260200160002054905080341015610688576040517f08c379a000000000000000000000000000000000000000000000000000000000815260040161067f906112b7565b60405180910390fd5b6004600084815260200190815260200160002060405180604001604052803373ffffffffffffffffffffffffffffffffffffffff16815260200134815250908060018154018082558091505060019003906000526020600020906002020160009091909190915060008201518160000160006101000a81548173ffffffffffffffffffffffffffffffffffffffff021916908373ffffffffffffffffffffffffffffffffffffffff1602179055506020820151816001015550506000600660008581526020019081526020016000205403610783576001544261076b9190611306565b60066000858152602001908152602001600020819055505b3373ffffffffffffffffffffffffffffffffffffffff16837f0e54eff26401bf69b81b26f60bd85ef47f5d85275c1d268d84f68d6897431c47346040516107ca9190610eca565b60405180910390a3505050565b806002600082815260200190815260200160002060009054906101000a900473ffffffffffffffffffffffffffffffffffffffff1673ffffffffffffffffffffffffffffffffffffffff163373ffffffffffffffffffffffffffffffffffffffff1614610879576040517f08c379a000000000000000000000000000000000000000000000000000000000815260040161087090611386565b60405180910390fd5b60066000838152602001908152602001600020544210156108cf576040517f08c379a00000000000000000000000000000000000000000000000000000000081526004016108c6906113f2565b60405180910390fd5b6000600460008481526020019081526020016000208054905011610928576040517f08c379a000000000000000000000000000000000000000000000000000000000815260040161091f9061145e565b60405180910390fd5b6000600460008481526020019081526020016000206000815481106109505761094f61147e565b5b90600052602060002090600202016040518060400160405290816000820160009054906101000a900473ffffffffffffffffffffffffffffffffffffffff1673ffffffffffffffffffffffffffffffffffffffff1673ffffffffffffffffffffffffffffffffffffffff16815260200160018201548152505090506000600190505b6004600085815260200190815260200160002080549050811015610ae0578160200151600460008681526020019081526020016000208281548110610a1a57610a1961147e565b5b9060005260206000209060020201600101541115610ad357600460008581526020019081526020016000208181548110610a5757610a5661147e565b5b90600052602060002090600202016040518060400160405290816000820160009054906101000a900473ffffffffffffffffffffffffffffffffffffffff1673ffffffffffffffffffffffffffffffffffffffff1673ffffffffffffffffffffffffffffffffffffffff16815260200160018201548152505091505b80806001019150506109d2565b506002600084815260200190815260200160002060009054906101000a900473ffffffffffffffffffffffffffffffffffffffff1673ffffffffffffffffffffffffffffffffffffffff166108fc82602001519081150290604051600060405180830381858888f19350505050158015610b5e573d6000803e3d6000fd5b5060016005600085815260200190815260200160002060006101000a81548160ff02191690831515021790555080600001516002600085815260200190815260200160002060006101000a81548173ffffffffffffffffffffffffffffffffffffffff021916908373ffffffffffffffffffffffffffffffffffffffff16021790555060005b6004600085815260200190815260200160002080549050811015610d7057816000015173ffffffffffffffffffffffffffffffffffffffff16600460008681526020019081526020016000208281548110610c4257610c4161147e565b5b906000526020600020906002020160000160009054906101000a900473ffffffffffffffffffffffffffffffffffffffff1673ffffffffffffffffffffffffffffffffffffffff1614610d6357600460008581526020019081526020016000208181548110610cb457610cb361147e565b5b906000526020600020906002020160000160009054906101000a900473ffffffffffffffffffffffffffffffffffffffff1673ffffffffffffffffffffffffffffffffffffffff166108fc600460008781526020019081526020016000208381548110610d2457610d2361147e565b5b9060005260206000209060020201600101549081150290604051600060405180830381858888f19350505050158015610d61573d6000803e3d6000fd5b505b8080600101915050610be4565b50806000015173ffffffffffffffffffffffffffffffffffffffff16837fd2aa34a4fdbbc6dff6a3e56f46e0f3ae2a31d7785ff3487aa5c95c642acea5018360200151604051610dc09190610eca565b60405180910390a3505050565b60046020528160005260406000208181548110610de957600080fd5b9060005260206000209060020201600091509150508060000160009054906101000a900473ffffffffffffffffffffffffffffffffffffffff16908060010154905082565b60026020528060005260406000206000915054906101000a900473ffffffffffffffffffffffffffffffffffffffff1681565b60066020528060005260406000206000915090505481565b60036020528060005260406000206000915090505481565b60056020528060005260406000206000915054906101000a900460ff1681565b6000819050919050565b610ec481610eb1565b82525050565b6000602082019050610edf6000830184610ebb565b92915050565b600080fd5b610ef381610eb1565b8114610efe57600080fd5b50565b600081359050610f1081610eea565b92915050565b600060208284031215610f2c57610f2b610ee5565b5b6000610f3a84828501610f01565b91505092915050565b600081519050919050565b600082825260208201905092915050565b6000819050602082019050919050565b600073ffffffffffffffffffffffffffffffffffffffff82169050919050565b6000610f9a82610f6f565b9050919050565b610faa81610f8f565b82525050565b610fb981610eb1565b82525050565b604082016000820151610fd56000850182610fa1565b506020820151610fe86020850182610fb0565b50505050565b6000610ffa8383610fbf565b60408301905092915050565b6000602082019050919050565b600061101e82610f43565b6110288185610f4e565b935061103383610f5f565b8060005b8381101561106457815161104b8882610fee565b975061105683611006565b925050600181019050611037565b5085935050505092915050565b6000602082019050818103600083015261108b8184611013565b905092915050565b61109c81610f8f565b82525050565b60006020820190506110b76000830184611093565b92915050565b600080604083850312156110d4576110d3610ee5565b5b60006110e285828601610f01565b92505060206110f385828601610f01565b9150509250929050565b60006040820190506111126000830185611093565b61111f6020830184610ebb565b9392505050565b60008115159050919050565b61113b81611126565b82525050565b60006020820190506111566000830184611132565b92915050565b600082825260208201905092915050565b7f4e465420697320616c7265616479206c69737465640000000000000000000000600082015250565b60006111a360158361115c565b91506111ae8261116d565b602082019050919050565b600060208201905081810360008301526111d281611196565b9050919050565b7f4e465420697320616c726561647920736f6c64206f7574000000000000000000600082015250565b600061120f60178361115c565b915061121a826111d9565b602082019050919050565b6000602082019050818103600083015261123e81611202565b9050919050565b7f426964206d757374206d656574206f722062652067726561746572207468616e60008201527f20746865204e4654207072696365000000000000000000000000000000000000602082015250565b60006112a1602e8361115c565b91506112ac82611245565b604082019050919050565b600060208201905081810360008301526112d081611294565b9050919050565b7f4e487b7100000000000000000000000000000000000000000000000000000000600052601160045260246000fd5b600061131182610eb1565b915061131c83610eb1565b9250828201905080821115611334576113336112d7565b5b92915050565b7f4f6e6c7920746865204e4654206f776e65722063616e20646f20746869730000600082015250565b6000611370601e8361115c565b915061137b8261133a565b602082019050919050565b6000602082019050818103600083015261139f81611363565b9050919050565b7f41756374696f6e20686173206e6f7420656e6465642079657400000000000000600082015250565b60006113dc60198361115c565b91506113e7826113a6565b602082019050919050565b6000602082019050818103600083015261140b816113cf565b9050919050565b7f4e6f206269647320706c61636564000000000000000000000000000000000000600082015250565b6000611448600e8361115c565b915061145382611412565b602082019050919050565b600060208201905081810360008301526114778161143b565b9050919050565b7f4e487b7100000000000000000000000000000000000000000000000000000000600052603260045260246000fdfea2646970667358221220da472d619c88e88662d13fb3e9230e904026fcb123e934c7c59f134980e629c864736f6c634300081b0033",
  "linkReferences": {},
  "deployedLinkReferences": {}
}