{
  "_format": "hh-sol-artifact-1",
  "contractName": "NftContract",
  "sourceName": "contracts/NftContract.sol",
  "abi": [
    {
      "inputs": [],
      "stateMutability": "nonpayable",
      "type": "constructor"
    },
    {
      "inputs": [
        {
          "internalType": "address",
          "name": "sender",
          "type": "address"
        },
        {
          "internalType": "uint256",
          "name": "tokenId",
          "type": "uint256"
        },
        {
          "internalType": "address",
          "name": "owner",
          "type": "address"
        }
      ],
      "name": "ERC721IncorrectOwner",
      "type": "error"
    },
    {
      "inputs": [
        {
          "internalType": "address",
          "name": "operator",
          "type": "address"
        },
        {
          "internalType": "uint256",
          "name": "tokenId",
          "type": "uint256"
        }
      ],
      "name": "ERC721InsufficientApproval",
      "type": "error"
    },
    {
      "inputs": [
        {
          "internalType": "address",
          "name": "approver",
          "type": "address"
        }
      ],
      "name": "ERC721InvalidApprover",
      "type": "error"
    },
    {
      "inputs": [
        {
          "internalType": "address",
          "name": "operator",
          "type": "address"
        }
      ],
      "name": "ERC721InvalidOperator",
      "type": "error"
    },
    {
      "inputs": [
        {
          "internalType": "address",
          "name": "owner",
          "type": "address"
        }
      ],
      "name": "ERC721InvalidOwner",
      "type": "error"
    },
    {
      "inputs": [
        {
          "internalType": "address",
          "name": "receiver",
          "type": "address"
        }
      ],
      "name": "ERC721InvalidReceiver",
      "type": "error"
    },
    {
      "inputs": [
        {
          "internalType": "address",
          "name": "sender",
          "type": "address"
        }
      ],
      "name": "ERC721InvalidSender",
      "type": "error"
    },
    {
      "inputs": [
        {
          "internalType": "uint256",
          "name": "tokenId",
          "type": "uint256"
        }
      ],
      "name": "ERC721NonexistentToken",
      "type": "error"
    },
    {
      "anonymous": false,
      "inputs": [
        {
          "indexed": true,
          "internalType": "address",
          "name": "owner",
          "type": "address"
        },
        {
          "indexed": true,
          "internalType": "address",
          "name": "approved",
          "type": "address"
        },
        {
          "indexed": true,
          "internalType": "uint256",
          "name": "tokenId",
          "type": "uint256"
        }
      ],
      "name": "Approval",
      "type": "event"
    },
    {
      "anonymous": false,
      "inputs": [
        {
          "indexed": true,
          "internalType": "address",
          "name": "owner",
          "type": "address"
        },
        {
          "indexed": true,
          "internalType": "address",
          "name": "operator",
          "type": "address"
        },
        {
          "indexed": false,
          "internalType": "bool",
          "name": "approved",
          "type": "bool"
        }
      ],
      "name": "ApprovalForAll",
      "type": "event"
    },
    {
      "anonymous": false,
      "inputs": [
        {
          "indexed": true,
          "internalType": "address",
          "name": "from",
          "type": "address"
        },
        {
          "indexed": true,
          "internalType": "address",
          "name": "to",
          "type": "address"
        },
        {
          "indexed": true,
          "internalType": "uint256",
          "name": "tokenId",
          "type": "uint256"
        }
      ],
      "name": "Transfer",
      "type": "event"
    },
    {
      "inputs": [
        {
          "internalType": "address",
          "name": "to",
          "type": "address"
        },
        {
          "internalType": "uint256",
          "name": "tokenId",
          "type": "uint256"
        }
      ],
      "name": "approve",
      "outputs": [],
      "stateMutability": "nonpayable",
      "type": "function"
    },
    {
      "inputs": [
        {
          "internalType": "address",
          "name": "owner",
          "type": "address"
        }
      ],
      "name": "balanceOf",
      "outputs": [
        {
          "internalType": "uint256",
          "name": "",
          "type": "uint256"
        }
      ],
      "stateMutability": "view",
      "type": "function"
    },
    {
      "inputs": [
        {
          "internalType": "uint256",
          "name": "tokenId",
          "type": "uint256"
        }
      ],
      "name": "buyNFT",
      "outputs": [],
      "stateMutability": "payable",
      "type": "function"
    },
    {
      "inputs": [
        {
          "internalType": "uint256",
          "name": "tokenId",
          "type": "uint256"
        }
      ],
      "name": "getApproved",
      "outputs": [
        {
          "internalType": "address",
          "name": "",
          "type": "address"
        }
      ],
      "stateMutability": "view",
      "type": "function"
    },
    {
      "inputs": [
        {
          "internalType": "address",
          "name": "owner",
          "type": "address"
        },
        {
          "internalType": "address",
          "name": "operator",
          "type": "address"
        }
      ],
      "name": "isApprovedForAll",
      "outputs": [
        {
          "internalType": "bool",
          "name": "",
          "type": "bool"
        }
      ],
      "stateMutability": "view",
      "type": "function"
    },
    {
      "inputs": [
        {
          "internalType": "address",
          "name": "to",
          "type": "address"
        }
      ],
      "name": "mintNFT",
      "outputs": [],
      "stateMutability": "nonpayable",
      "type": "function"
    },
    {
      "inputs": [],
      "name": "name",
      "outputs": [
        {
          "internalType": "string",
          "name": "",
          "type": "string"
        }
      ],
      "stateMutability": "view",
      "type": "function"
    },
    {
      "inputs": [
        {
          "internalType": "uint256",
          "name": "tokenId",
          "type": "uint256"
        }
      ],
      "name": "ownerOf",
      "outputs": [
        {
          "internalType": "address",
          "name": "",
          "type": "address"
        }
      ],
      "stateMutability": "view",
      "type": "function"
    },
    {
      "inputs": [
        {
          "internalType": "address",
          "name": "from",
          "type": "address"
        },
        {
          "internalType": "address",
          "name": "to",
          "type": "address"
        },
        {
          "internalType": "uint256",
          "name": "tokenId",
          "type": "uint256"
        }
      ],
      "name": "safeTransferFrom",
      "outputs": [],
      "stateMutability": "nonpayable",
      "type": "function"
    },
    {
      "inputs": [
        {
          "internalType": "address",
          "name": "from",
          "type": "address"
        },
        {
          "internalType": "address",
          "name": "to",
          "type": "address"
        },
        {
          "internalType": "uint256",
          "name": "tokenId",
          "type": "uint256"
        },
        {
          "internalType": "bytes",
          "name": "data",
          "type": "bytes"
        }
      ],
      "name": "safeTransferFrom",
      "outputs": [],
      "stateMutability": "nonpayable",
      "type": "function"
    },
    {
      "inputs": [
        {
          "internalType": "address",
          "name": "operator",
          "type": "address"
        },
        {
          "internalType": "bool",
          "name": "approved",
          "type": "bool"
        }
      ],
      "name": "setApprovalForAll",
      "outputs": [],
      "stateMutability": "nonpayable",
      "type": "function"
    },
    {
      "inputs": [
        {
          "internalType": "uint256",
          "name": "tokenId",
          "type": "uint256"
        },
        {
          "internalType": "uint256",
          "name": "price",
          "type": "uint256"
        }
      ],
      "name": "setTokenPrice",
      "outputs": [],
      "stateMutability": "nonpayable",
      "type": "function"
    },
    {
      "inputs": [
        {
          "internalType": "bytes4",
          "name": "interfaceId",
          "type": "bytes4"
        }
      ],
      "name": "supportsInterface",
      "outputs": [
        {
          "internalType": "bool",
          "name": "",
          "type": "bool"
        }
      ],
      "stateMutability": "view",
      "type": "function"
    },
    {
      "inputs": [],
      "name": "symbol",
      "outputs": [
        {
          "internalType": "string",
          "name": "",
          "type": "string"
        }
      ],
      "stateMutability": "view",
      "type": "function"
    },
    {
      "inputs": [
        {
          "internalType": "uint256",
          "name": "",
          "type": "uint256"
        }
      ],
      "name": "tokenPrices",
      "outputs": [
        {
          "internalType": "uint256",
          "name": "",
          "type": "uint256"
        }
      ],
      "stateMutability": "view",
      "type": "function"
    },
    {
      "inputs": [
        {
          "internalType": "uint256",
          "name": "tokenId",
          "type": "uint256"
        }
      ],
      "name": "tokenURI",
      "outputs": [
        {
          "internalType": "string",
          "name": "",
          "type": "string"
        }
      ],
      "stateMutability": "view",
      "type": "function"
    },
    {
      "inputs": [
        {
          "internalType": "address",
          "name": "from",
          "type": "address"
        },
        {
          "internalType": "address",
          "name": "to",
          "type": "address"
        },
        {
          "internalType": "uint256",
          "name": "tokenId",
          "type": "uint256"
        }
      ],
      "name": "transferFrom",
      "outputs": [],
      "stateMutability": "nonpayable",
      "type": "function"
    },
    {
      "inputs": [
        {
          "internalType": "address",
          "name": "from",
          "type": "address"
        },
        {
          "internalType": "address",
          "name": "to",
          "type": "address"
        },
        {
          "internalType": "uint256",
          "name": "tokenId",
          "type": "uint256"
        }
      ],
      "name": "transferNFT",
      "outputs": [],
      "stateMutability": "nonpayable",
      "type": "function"
    }
  ],
  "bytecode": "0x608060405234801561001057600080fd5b506040518060400160405280600e81526020017f4e46544d61726b6574706c6163650000000000000000000000000000000000008152506040518060400160405280600481526020017f4e46544d00000000000000000000000000000000000000000000000000000000815250816000908161008c91906102f4565b50806001908161009c91906102f4565b5050506103c6565b600081519050919050565b7f4e487b7100000000000000000000000000000000000000000000000000000000600052604160045260246000fd5b7f4e487b7100000000000000000000000000000000000000000000000000000000600052602260045260246000fd5b6000600282049050600182168061012557607f821691505b602082108103610138576101376100de565b5b50919050565b60008190508160005260206000209050919050565b60006020601f8301049050919050565b600082821b905092915050565b6000600883026101a07fffffffffffffffffffffffffffffffffffffffffffffffffffffffffffffffff82610163565b6101aa8683610163565b95508019841693508086168417925050509392505050565b6000819050919050565b6000819050919050565b60006101f16101ec6101e7846101c2565b6101cc565b6101c2565b9050919050565b6000819050919050565b61020b836101d6565b61021f610217826101f8565b848454610170565b825550505050565b600090565b610234610227565b61023f818484610202565b505050565b5b818110156102635761025860008261022c565b600181019050610245565b5050565b601f8211156102a8576102798161013e565b61028284610153565b81016020851015610291578190505b6102a561029d85610153565b830182610244565b50505b505050565b600082821c905092915050565b60006102cb600019846008026102ad565b1980831691505092915050565b60006102e483836102ba565b9150826002028217905092915050565b6102fd826100a4565b67ffffffffffffffff811115610316576103156100af565b5b610320825461010d565b61032b828285610267565b600060209050601f83116001811461035e576000841561034c578287015190505b61035685826102d8565b8655506103be565b601f19841661036c8661013e565b60005b828110156103945784890151825560018201915060208501945060208101905061036f565b868310156103b157848901516103ad601f8916826102ba565b8355505b6001600288020188555050505b505050505050565b6124a1806103d56000396000f3fe6080604052600436106101095760003560e01c806369e9cae111610095578063b88d4fde11610064578063b88d4fde1461036a578063c87b56dd14610393578063e5afe3e6146103d0578063e985e9c51461040d578063eb685c471461044a57610109565b806369e9cae1146102b057806370a08231146102d957806395d89b4114610316578063a22cb4651461034157610109565b806323b872dd116100dc57806323b872dd146101dc57806342842e0e1461020557806351ed82881461022e57806354ba0f271461024a5780636352211e1461027357610109565b806301ffc9a71461010e57806306fdde031461014b578063081812fc14610176578063095ea7b3146101b3575b600080fd5b34801561011a57600080fd5b5061013560048036038101906101309190611b5c565b610473565b6040516101429190611ba4565b60405180910390f35b34801561015757600080fd5b50610160610555565b60405161016d9190611c4f565b60405180910390f35b34801561018257600080fd5b5061019d60048036038101906101989190611ca7565b6105e7565b6040516101aa9190611d15565b60405180910390f35b3480156101bf57600080fd5b506101da60048036038101906101d59190611d5c565b610603565b005b3480156101e857600080fd5b5061020360048036038101906101fe9190611d9c565b610619565b005b34801561021157600080fd5b5061022c60048036038101906102279190611d9c565b61071b565b005b61024860048036038101906102439190611ca7565b61073b565b005b34801561025657600080fd5b50610271600480360381019061026c9190611def565b610813565b005b34801561027f57600080fd5b5061029a60048036038101906102959190611ca7565b610840565b6040516102a79190611d15565b60405180910390f35b3480156102bc57600080fd5b506102d760048036038101906102d29190611d9c565b610852565b005b3480156102e557600080fd5b5061030060048036038101906102fb9190611def565b6108d8565b60405161030d9190611e2b565b60405180910390f35b34801561032257600080fd5b5061032b610992565b6040516103389190611c4f565b60405180910390f35b34801561034d57600080fd5b5061036860048036038101906103639190611e72565b610a24565b005b34801561037657600080fd5b50610391600480360381019061038c9190611fe7565b610a3a565b005b34801561039f57600080fd5b506103ba60048036038101906103b59190611ca7565b610a5f565b6040516103c79190611c4f565b60405180910390f35b3480156103dc57600080fd5b506103f760048036038101906103f29190611ca7565b610ac8565b6040516104049190611e2b565b60405180910390f35b34801561041957600080fd5b50610434600480360381019061042f919061206a565b610ae0565b6040516104419190611ba4565b60405180910390f35b34801561045657600080fd5b50610471600480360381019061046c91906120aa565b610b74565b005b60007f80ac58cd000000000000000000000000000000000000000000000000000000007bffffffffffffffffffffffffffffffffffffffffffffffffffffffff1916827bffffffffffffffffffffffffffffffffffffffffffffffffffffffff1916148061053e57507f5b5e139f000000000000000000000000000000000000000000000000000000007bffffffffffffffffffffffffffffffffffffffffffffffffffffffff1916827bffffffffffffffffffffffffffffffffffffffffffffffffffffffff1916145b8061054e575061054d82610c06565b5b9050919050565b60606000805461056490612119565b80601f016020809104026020016040519081016040528092919081815260200182805461059090612119565b80156105dd5780601f106105b2576101008083540402835291602001916105dd565b820191906000526020600020905b8154815290600101906020018083116105c057829003601f168201915b5050505050905090565b60006105f282610c70565b506105fc82610cf8565b9050919050565b6106158282610610610d35565b610d3d565b5050565b600073ffffffffffffffffffffffffffffffffffffffff168273ffffffffffffffffffffffffffffffffffffffff160361068b5760006040517f64a0ae920000000000000000000000000000000000000000000000000000000081526004016106829190611d15565b60405180910390fd5b600061069f838361069a610d35565b610d4f565b90508373ffffffffffffffffffffffffffffffffffffffff168173ffffffffffffffffffffffffffffffffffffffff1614610715578382826040517f64283d7b00000000000000000000000000000000000000000000000000000000815260040161070c9392919061214a565b60405180910390fd5b50505050565b61073683838360405180602001604052806000815250610a3a565b505050565b60006007600083815260200190815260200160002054905080341015610796576040517f08c379a000000000000000000000000000000000000000000000000000000000815260040161078d906121cd565b60405180910390fd5b60006107a183610840565b90506107ae813385610f69565b8073ffffffffffffffffffffffffffffffffffffffff166108fc349081150290604051600060405180830381858888f193505050501580156107f4573d6000803e3d6000fd5b5060006007600085815260200190815260200160002081905550505050565b6000600654905061082482826110d6565b600660008154809291906108379061221c565b91905055505050565b600061084b82610c70565b9050919050565b8273ffffffffffffffffffffffffffffffffffffffff1661087282610840565b73ffffffffffffffffffffffffffffffffffffffff16146108c8576040517f08c379a00000000000000000000000000000000000000000000000000000000081526004016108bf906122b0565b60405180910390fd5b6108d3838383610f69565b505050565b60008073ffffffffffffffffffffffffffffffffffffffff168273ffffffffffffffffffffffffffffffffffffffff160361094b5760006040517f89c62b640000000000000000000000000000000000000000000000000000000081526004016109429190611d15565b60405180910390fd5b600360008373ffffffffffffffffffffffffffffffffffffffff1673ffffffffffffffffffffffffffffffffffffffff168152602001908152602001600020549050919050565b6060600180546109a190612119565b80601f01602080910402602001604051908101604052809291908181526020018280546109cd90612119565b8015610a1a5780601f106109ef57610100808354040283529160200191610a1a565b820191906000526020600020905b8154815290600101906020018083116109fd57829003601f168201915b5050505050905090565b610a36610a2f610d35565b83836110f4565b5050565b610a45848484610619565b610a59610a50610d35565b85858585611263565b50505050565b6060610a6a82610c70565b506000610a75611414565b90506000815111610a955760405180602001604052806000815250610ac0565b80610a9f8461142b565b604051602001610ab092919061230c565b6040516020818303038152906040525b915050919050565b60076020528060005260406000206000915090505481565b6000600560008473ffffffffffffffffffffffffffffffffffffffff1673ffffffffffffffffffffffffffffffffffffffff16815260200190815260200160002060008373ffffffffffffffffffffffffffffffffffffffff1673ffffffffffffffffffffffffffffffffffffffff16815260200190815260200160002060009054906101000a900460ff16905092915050565b3373ffffffffffffffffffffffffffffffffffffffff16610b9483610840565b73ffffffffffffffffffffffffffffffffffffffff1614610bea576040517f08c379a0000000000000000000000000000000000000000000000000000000008152600401610be1906122b0565b60405180910390fd5b8060076000848152602001908152602001600020819055505050565b60007f01ffc9a7000000000000000000000000000000000000000000000000000000007bffffffffffffffffffffffffffffffffffffffffffffffffffffffff1916827bffffffffffffffffffffffffffffffffffffffffffffffffffffffff1916149050919050565b600080610c7c836114f9565b9050600073ffffffffffffffffffffffffffffffffffffffff168173ffffffffffffffffffffffffffffffffffffffff1603610cef57826040517f7e273289000000000000000000000000000000000000000000000000000000008152600401610ce69190611e2b565b60405180910390fd5b80915050919050565b60006004600083815260200190815260200160002060009054906101000a900473ffffffffffffffffffffffffffffffffffffffff169050919050565b600033905090565b610d4a8383836001611536565b505050565b600080610d5b846114f9565b9050600073ffffffffffffffffffffffffffffffffffffffff168373ffffffffffffffffffffffffffffffffffffffff1614610d9d57610d9c8184866116fb565b5b600073ffffffffffffffffffffffffffffffffffffffff168173ffffffffffffffffffffffffffffffffffffffff1614610e2e57610ddf600085600080611536565b6001600360008373ffffffffffffffffffffffffffffffffffffffff1673ffffffffffffffffffffffffffffffffffffffff168152602001908152602001600020600082825403925050819055505b600073ffffffffffffffffffffffffffffffffffffffff168573ffffffffffffffffffffffffffffffffffffffff1614610eb1576001600360008773ffffffffffffffffffffffffffffffffffffffff1673ffffffffffffffffffffffffffffffffffffffff168152602001908152602001600020600082825401925050819055505b846002600086815260200190815260200160002060006101000a81548173ffffffffffffffffffffffffffffffffffffffff021916908373ffffffffffffffffffffffffffffffffffffffff160217905550838573ffffffffffffffffffffffffffffffffffffffff168273ffffffffffffffffffffffffffffffffffffffff167fddf252ad1be2c89b69c2b068fc378daa952ba7f163c4a11628f55a4df523b3ef60405160405180910390a4809150509392505050565b600073ffffffffffffffffffffffffffffffffffffffff168273ffffffffffffffffffffffffffffffffffffffff1603610fdb5760006040517f64a0ae92000000000000000000000000000000000000000000000000000000008152600401610fd29190611d15565b60405180910390fd5b6000610fe983836000610d4f565b9050600073ffffffffffffffffffffffffffffffffffffffff168173ffffffffffffffffffffffffffffffffffffffff160361105c57816040517f7e2732890000000000000000000000000000000000000000000000000000000081526004016110539190611e2b565b60405180910390fd5b8373ffffffffffffffffffffffffffffffffffffffff168173ffffffffffffffffffffffffffffffffffffffff16146110d0578382826040517f64283d7b0000000000000000000000000000000000000000000000000000000081526004016110c79392919061214a565b60405180910390fd5b50505050565b6110f08282604051806020016040528060008152506117bf565b5050565b600073ffffffffffffffffffffffffffffffffffffffff168273ffffffffffffffffffffffffffffffffffffffff160361116557816040517f5b08ba1800000000000000000000000000000000000000000000000000000000815260040161115c9190611d15565b60405180910390fd5b80600560008573ffffffffffffffffffffffffffffffffffffffff1673ffffffffffffffffffffffffffffffffffffffff16815260200190815260200160002060008473ffffffffffffffffffffffffffffffffffffffff1673ffffffffffffffffffffffffffffffffffffffff16815260200190815260200160002060006101000a81548160ff0219169083151502179055508173ffffffffffffffffffffffffffffffffffffffff168373ffffffffffffffffffffffffffffffffffffffff167f17307eab39ab6107e8899845ad3d59bd9653f200f220920489ca2b5937696c31836040516112569190611ba4565b60405180910390a3505050565b60008373ffffffffffffffffffffffffffffffffffffffff163b111561140d578273ffffffffffffffffffffffffffffffffffffffff1663150b7a02868685856040518563ffffffff1660e01b81526004016112c29493929190612385565b6020604051808303816000875af19250505080156112fe57506040513d601f19601f820116820180604052508101906112fb91906123e6565b60015b611382573d806000811461132e576040519150601f19603f3d011682016040523d82523d6000602084013e611333565b606091505b50600081510361137a57836040517f64a0ae920000000000000000000000000000000000000000000000000000000081526004016113719190611d15565b60405180910390fd5b805181602001fd5b63150b7a0260e01b7bffffffffffffffffffffffffffffffffffffffffffffffffffffffff1916817bffffffffffffffffffffffffffffffffffffffffffffffffffffffff19161461140b57836040517f64a0ae920000000000000000000000000000000000000000000000000000000081526004016114029190611d15565b60405180910390fd5b505b5050505050565b606060405180602001604052806000815250905090565b60606000600161143a846117e3565b01905060008167ffffffffffffffff81111561145957611458611ebc565b5b6040519080825280601f01601f19166020018201604052801561148b5781602001600182028036833780820191505090505b509050600082602001820190505b6001156114ee578080600190039150507f3031323334353637383961626364656600000000000000000000000000000000600a86061a8153600a85816114e2576114e1612413565b5b04945060008503611499575b819350505050919050565b60006002600083815260200190815260200160002060009054906101000a900473ffffffffffffffffffffffffffffffffffffffff169050919050565b808061156f5750600073ffffffffffffffffffffffffffffffffffffffff168273ffffffffffffffffffffffffffffffffffffffff1614155b156116a357600061157f84610c70565b9050600073ffffffffffffffffffffffffffffffffffffffff168373ffffffffffffffffffffffffffffffffffffffff16141580156115ea57508273ffffffffffffffffffffffffffffffffffffffff168173ffffffffffffffffffffffffffffffffffffffff1614155b80156115fd57506115fb8184610ae0565b155b1561163f57826040517fa9fbf51f0000000000000000000000000000000000000000000000000000000081526004016116369190611d15565b60405180910390fd5b81156116a157838573ffffffffffffffffffffffffffffffffffffffff168273ffffffffffffffffffffffffffffffffffffffff167f8c5be1e5ebec7d5bd14f71427d1e84f3dd0314c0f7b2291e5b200ac8c7c3b92560405160405180910390a45b505b836004600085815260200190815260200160002060006101000a81548173ffffffffffffffffffffffffffffffffffffffff021916908373ffffffffffffffffffffffffffffffffffffffff16021790555050505050565b611706838383611936565b6117ba57600073ffffffffffffffffffffffffffffffffffffffff168373ffffffffffffffffffffffffffffffffffffffff160361177b57806040517f7e2732890000000000000000000000000000000000000000000000000000000081526004016117729190611e2b565b60405180910390fd5b81816040517f177e802f0000000000000000000000000000000000000000000000000000000081526004016117b1929190612442565b60405180910390fd5b505050565b6117c983836119f7565b6117de6117d4610d35565b6000858585611263565b505050565b600080600090507a184f03e93ff9f4daa797ed6e38ed64bf6a1f0100000000000000008310611841577a184f03e93ff9f4daa797ed6e38ed64bf6a1f010000000000000000838161183757611836612413565b5b0492506040810190505b6d04ee2d6d415b85acef8100000000831061187e576d04ee2d6d415b85acef8100000000838161187457611873612413565b5b0492506020810190505b662386f26fc1000083106118ad57662386f26fc1000083816118a3576118a2612413565b5b0492506010810190505b6305f5e10083106118d6576305f5e10083816118cc576118cb612413565b5b0492506008810190505b61271083106118fb5761271083816118f1576118f0612413565b5b0492506004810190505b6064831061191e576064838161191457611913612413565b5b0492506002810190505b600a831061192d576001810190505b80915050919050565b60008073ffffffffffffffffffffffffffffffffffffffff168373ffffffffffffffffffffffffffffffffffffffff16141580156119ee57508273ffffffffffffffffffffffffffffffffffffffff168473ffffffffffffffffffffffffffffffffffffffff1614806119af57506119ae8484610ae0565b5b806119ed57508273ffffffffffffffffffffffffffffffffffffffff166119d583610cf8565b73ffffffffffffffffffffffffffffffffffffffff16145b5b90509392505050565b600073ffffffffffffffffffffffffffffffffffffffff168273ffffffffffffffffffffffffffffffffffffffff1603611a695760006040517f64a0ae92000000000000000000000000000000000000000000000000000000008152600401611a609190611d15565b60405180910390fd5b6000611a7783836000610d4f565b9050600073ffffffffffffffffffffffffffffffffffffffff168173ffffffffffffffffffffffffffffffffffffffff1614611aeb5760006040517f73c6ac6e000000000000000000000000000000000000000000000000000000008152600401611ae29190611d15565b60405180910390fd5b505050565b6000604051905090565b600080fd5b600080fd5b60007fffffffff0000000000000000000000000000000000000000000000000000000082169050919050565b611b3981611b04565b8114611b4457600080fd5b50565b600081359050611b5681611b30565b92915050565b600060208284031215611b7257611b71611afa565b5b6000611b8084828501611b47565b91505092915050565b60008115159050919050565b611b9e81611b89565b82525050565b6000602082019050611bb96000830184611b95565b92915050565b600081519050919050565b600082825260208201905092915050565b60005b83811015611bf9578082015181840152602081019050611bde565b60008484015250505050565b6000601f19601f8301169050919050565b6000611c2182611bbf565b611c2b8185611bca565b9350611c3b818560208601611bdb565b611c4481611c05565b840191505092915050565b60006020820190508181036000830152611c698184611c16565b905092915050565b6000819050919050565b611c8481611c71565b8114611c8f57600080fd5b50565b600081359050611ca181611c7b565b92915050565b600060208284031215611cbd57611cbc611afa565b5b6000611ccb84828501611c92565b91505092915050565b600073ffffffffffffffffffffffffffffffffffffffff82169050919050565b6000611cff82611cd4565b9050919050565b611d0f81611cf4565b82525050565b6000602082019050611d2a6000830184611d06565b92915050565b611d3981611cf4565b8114611d4457600080fd5b50565b600081359050611d5681611d30565b92915050565b60008060408385031215611d7357611d72611afa565b5b6000611d8185828601611d47565b9250506020611d9285828601611c92565b9150509250929050565b600080600060608486031215611db557611db4611afa565b5b6000611dc386828701611d47565b9350506020611dd486828701611d47565b9250506040611de586828701611c92565b9150509250925092565b600060208284031215611e0557611e04611afa565b5b6000611e1384828501611d47565b91505092915050565b611e2581611c71565b82525050565b6000602082019050611e406000830184611e1c565b92915050565b611e4f81611b89565b8114611e5a57600080fd5b50565b600081359050611e6c81611e46565b92915050565b60008060408385031215611e8957611e88611afa565b5b6000611e9785828601611d47565b9250506020611ea885828601611e5d565b9150509250929050565b600080fd5b600080fd5b7f4e487b7100000000000000000000000000000000000000000000000000000000600052604160045260246000fd5b611ef482611c05565b810181811067ffffffffffffffff82111715611f1357611f12611ebc565b5b80604052505050565b6000611f26611af0565b9050611f328282611eeb565b919050565b600067ffffffffffffffff821115611f5257611f51611ebc565b5b611f5b82611c05565b9050602081019050919050565b82818337600083830152505050565b6000611f8a611f8584611f37565b611f1c565b905082815260208101848484011115611fa657611fa5611eb7565b5b611fb1848285611f68565b509392505050565b600082601f830112611fce57611fcd611eb2565b5b8135611fde848260208601611f77565b91505092915050565b6000806000806080858703121561200157612000611afa565b5b600061200f87828801611d47565b945050602061202087828801611d47565b935050604061203187828801611c92565b925050606085013567ffffffffffffffff81111561205257612051611aff565b5b61205e87828801611fb9565b91505092959194509250565b6000806040838503121561208157612080611afa565b5b600061208f85828601611d47565b92505060206120a085828601611d47565b9150509250929050565b600080604083850312156120c1576120c0611afa565b5b60006120cf85828601611c92565b92505060206120e085828601611c92565b9150509250929050565b7f4e487b7100000000000000000000000000000000000000000000000000000000600052602260045260246000fd5b6000600282049050600182168061213157607f821691505b602082108103612144576121436120ea565b5b50919050565b600060608201905061215f6000830186611d06565b61216c6020830185611e1c565b6121796040830184611d06565b949350505050565b7f496e73756666696369656e742066756e64730000000000000000000000000000600082015250565b60006121b7601283611bca565b91506121c282612181565b602082019050919050565b600060208201905081810360008301526121e6816121aa565b9050919050565b7f4e487b7100000000000000000000000000000000000000000000000000000000600052601160045260246000fd5b600061222782611c71565b91507fffffffffffffffffffffffffffffffffffffffffffffffffffffffffffffffff8203612259576122586121ed565b5b600182019050919050565b7f596f7520617265206e6f7420746865206f776e65720000000000000000000000600082015250565b600061229a601583611bca565b91506122a582612264565b602082019050919050565b600060208201905081810360008301526122c98161228d565b9050919050565b600081905092915050565b60006122e682611bbf565b6122f081856122d0565b9350612300818560208601611bdb565b80840191505092915050565b600061231882856122db565b915061232482846122db565b91508190509392505050565b600081519050919050565b600082825260208201905092915050565b600061235782612330565b612361818561233b565b9350612371818560208601611bdb565b61237a81611c05565b840191505092915050565b600060808201905061239a6000830187611d06565b6123a76020830186611d06565b6123b46040830185611e1c565b81810360608301526123c6818461234c565b905095945050505050565b6000815190506123e081611b30565b92915050565b6000602082840312156123fc576123fb611afa565b5b600061240a848285016123d1565b91505092915050565b7f4e487b7100000000000000000000000000000000000000000000000000000000600052601260045260246000fd5b60006040820190506124576000830185611d06565b6124646020830184611e1c565b939250505056fea2646970667358221220888caeebddcf7678b7484cb4c390afbacbda2b496419a87ed0f5c7dc5748a62b64736f6c634300081b0033",
  "linkReferences": {},
  "deployedLinkReferences": {}
}